{
  "_format": "hh-sol-artifact-1",
  "contractName": "KRBTokenV01",
  "sourceName": "contracts/KRBTokenV01.sol",
  "abi": [
    {
      "anonymous": false,
      "inputs": [
        {
          "indexed": false,
          "internalType": "address",
          "name": "previousAdmin",
          "type": "address"
        },
        {
          "indexed": false,
          "internalType": "address",
          "name": "newAdmin",
          "type": "address"
        }
      ],
      "name": "AdminChanged",
      "type": "event"
    },
    {
      "anonymous": false,
      "inputs": [
        {
          "indexed": true,
          "internalType": "address",
          "name": "owner",
          "type": "address"
        },
        {
          "indexed": true,
          "internalType": "address",
          "name": "spender",
          "type": "address"
        },
        {
          "indexed": false,
          "internalType": "uint256",
          "name": "value",
          "type": "uint256"
        }
      ],
      "name": "Approval",
      "type": "event"
    },
    {
      "anonymous": false,
      "inputs": [
        {
          "indexed": true,
          "internalType": "address",
          "name": "beacon",
          "type": "address"
        }
      ],
      "name": "BeaconUpgraded",
      "type": "event"
    },
    {
      "anonymous": false,
      "inputs": [
        {
          "indexed": false,
          "internalType": "uint256",
          "name": "uuid",
          "type": "uint256"
        },
        {
          "indexed": false,
          "internalType": "string",
          "name": "reason",
          "type": "string"
        }
      ],
      "name": "Deleted",
      "type": "event"
    },
    {
      "anonymous": false,
      "inputs": [
        {
          "indexed": false,
          "internalType": "uint256",
          "name": "uuid",
          "type": "uint256"
        },
        {
          "indexed": false,
          "internalType": "uint256",
          "name": "disputedBy",
          "type": "uint256"
        }
      ],
      "name": "Disputed",
      "type": "event"
    },
    {
      "anonymous": false,
      "inputs": [
        {
          "indexed": false,
          "internalType": "uint256",
          "name": "uuid",
          "type": "uint256"
        }
      ],
      "name": "Expired",
      "type": "event"
    },
    {
      "anonymous": false,
      "inputs": [
        {
          "indexed": false,
          "internalType": "uint8",
          "name": "version",
          "type": "uint8"
        }
      ],
      "name": "Initialized",
      "type": "event"
    },
    {
      "anonymous": false,
      "inputs": [
        {
          "indexed": false,
          "internalType": "uint256",
          "name": "uuid",
          "type": "uint256"
        },
        {
          "components": [
            {
              "internalType": "string",
              "name": "_context",
              "type": "string"
            },
            {
              "internalType": "string",
              "name": "_type",
              "type": "string"
            },
            {
              "internalType": "string",
              "name": "id",
              "type": "string"
            },
            {
              "components": [
                {
                  "internalType": "string",
                  "name": "id",
                  "type": "string"
                },
                {
                  "internalType": "address",
                  "name": "ethereumAddress",
                  "type": "address"
                }
              ],
              "internalType": "struct VCTypesV01.Issuer",
              "name": "issuer",
              "type": "tuple"
            },
            {
              "components": [
                {
                  "internalType": "string",
                  "name": "id",
                  "type": "string"
                },
                {
                  "internalType": "address",
                  "name": "ethereumAddress",
                  "type": "address"
                },
                {
                  "internalType": "string",
                  "name": "_type",
                  "type": "string"
                },
                {
                  "internalType": "string",
                  "name": "typeSchema",
                  "type": "string"
                },
                {
                  "internalType": "string",
                  "name": "value",
                  "type": "string"
                },
                {
                  "internalType": "string",
                  "name": "encrypted",
                  "type": "string"
                },
                {
                  "internalType": "uint8",
                  "name": "trust",
                  "type": "uint8"
                },
                {
                  "internalType": "uint256",
                  "name": "stake",
                  "type": "uint256"
                },
                {
                  "internalType": "uint256",
                  "name": "price",
                  "type": "uint256"
                },
                {
                  "internalType": "uint256",
                  "name": "nbf",
                  "type": "uint256"
                },
                {
                  "internalType": "uint256",
                  "name": "exp",
                  "type": "uint256"
                }
              ],
              "internalType": "struct VCTypesV01.CredentialSubject",
              "name": "credentialSubject",
              "type": "tuple"
            },
            {
              "components": [
                {
                  "internalType": "string",
                  "name": "id",
                  "type": "string"
                },
                {
                  "internalType": "string",
                  "name": "_type",
                  "type": "string"
                }
              ],
              "internalType": "struct VCTypesV01.CredentialSchema",
              "name": "credentialSchema",
              "type": "tuple"
            },
            {
              "internalType": "string",
              "name": "issuanceDate",
              "type": "string"
            },
            {
              "internalType": "string",
              "name": "expirationDate",
              "type": "string"
            }
          ],
          "indexed": false,
          "internalType": "struct VCTypesV01.VerifiableCredential",
          "name": "vc",
          "type": "tuple"
        }
      ],
      "name": "Issued",
      "type": "event"
    },
    {
      "anonymous": false,
      "inputs": [
        {
          "indexed": false,
          "internalType": "address",
          "name": "account",
          "type": "address"
        }
      ],
      "name": "Paused",
      "type": "event"
    },
    {
      "anonymous": false,
      "inputs": [
        {
          "indexed": false,
          "internalType": "uint256",
          "name": "uuid",
          "type": "uint256"
        },
        {
          "indexed": false,
          "internalType": "string",
          "name": "reason",
          "type": "string"
        }
      ],
      "name": "Revoked",
      "type": "event"
    },
    {
      "anonymous": false,
      "inputs": [
        {
          "indexed": true,
          "internalType": "bytes32",
          "name": "role",
          "type": "bytes32"
        },
        {
          "indexed": true,
          "internalType": "bytes32",
          "name": "previousAdminRole",
          "type": "bytes32"
        },
        {
          "indexed": true,
          "internalType": "bytes32",
          "name": "newAdminRole",
          "type": "bytes32"
        }
      ],
      "name": "RoleAdminChanged",
      "type": "event"
    },
    {
      "anonymous": false,
      "inputs": [
        {
          "indexed": true,
          "internalType": "bytes32",
          "name": "role",
          "type": "bytes32"
        },
        {
          "indexed": true,
          "internalType": "address",
          "name": "account",
          "type": "address"
        },
        {
          "indexed": true,
          "internalType": "address",
          "name": "sender",
          "type": "address"
        }
      ],
      "name": "RoleGranted",
      "type": "event"
    },
    {
      "anonymous": false,
      "inputs": [
        {
          "indexed": true,
          "internalType": "bytes32",
          "name": "role",
          "type": "bytes32"
        },
        {
          "indexed": true,
          "internalType": "address",
          "name": "account",
          "type": "address"
        },
        {
          "indexed": true,
          "internalType": "address",
          "name": "sender",
          "type": "address"
        }
      ],
      "name": "RoleRevoked",
      "type": "event"
    },
    {
      "anonymous": false,
      "inputs": [
        {
          "indexed": true,
          "internalType": "address",
          "name": "from",
          "type": "address"
        },
        {
          "indexed": true,
          "internalType": "address",
          "name": "to",
          "type": "address"
        },
        {
          "indexed": false,
          "internalType": "uint256",
          "name": "value",
          "type": "uint256"
        }
      ],
      "name": "Staked",
      "type": "event"
    },
    {
      "anonymous": false,
      "inputs": [
        {
          "indexed": false,
          "internalType": "uint256",
          "name": "uuid",
          "type": "uint256"
        },
        {
          "indexed": false,
          "internalType": "string",
          "name": "reason",
          "type": "string"
        }
      ],
      "name": "Suspended",
      "type": "event"
    },
    {
      "anonymous": false,
      "inputs": [
        {
          "indexed": true,
          "internalType": "address",
          "name": "from",
          "type": "address"
        },
        {
          "indexed": true,
          "internalType": "address",
          "name": "to",
          "type": "address"
        },
        {
          "indexed": false,
          "internalType": "uint256",
          "name": "value",
          "type": "uint256"
        }
      ],
      "name": "Transfer",
      "type": "event"
    },
    {
      "anonymous": false,
      "inputs": [
        {
          "indexed": false,
          "internalType": "address",
          "name": "account",
          "type": "address"
        }
      ],
      "name": "Unpaused",
      "type": "event"
    },
    {
      "anonymous": false,
      "inputs": [],
      "name": "Updated",
      "type": "event"
    },
    {
      "anonymous": false,
      "inputs": [
        {
          "indexed": true,
          "internalType": "address",
          "name": "implementation",
          "type": "address"
        }
      ],
      "name": "Upgraded",
      "type": "event"
    },
    {
      "inputs": [],
      "name": "DEFAULT_ADMIN_ROLE",
      "outputs": [
        {
          "internalType": "bytes32",
          "name": "",
          "type": "bytes32"
        }
      ],
      "stateMutability": "view",
      "type": "function"
    },
    {
      "inputs": [],
      "name": "DOMAIN_SEPARATOR",
      "outputs": [
        {
          "internalType": "bytes32",
          "name": "",
          "type": "bytes32"
        }
      ],
      "stateMutability": "view",
      "type": "function"
    },
    {
      "inputs": [],
      "name": "GOVERN_ROLE",
      "outputs": [
        {
          "internalType": "bytes32",
          "name": "",
          "type": "bytes32"
        }
      ],
      "stateMutability": "view",
      "type": "function"
    },
    {
      "inputs": [
        {
          "internalType": "address",
          "name": "owner",
          "type": "address"
        },
        {
          "internalType": "address",
          "name": "spender",
          "type": "address"
        }
      ],
      "name": "allowance",
      "outputs": [
        {
          "internalType": "uint256",
          "name": "",
          "type": "uint256"
        }
      ],
      "stateMutability": "view",
      "type": "function"
    },
    {
      "inputs": [
        {
          "internalType": "address",
          "name": "spender",
          "type": "address"
        },
        {
          "internalType": "uint256",
          "name": "amount",
          "type": "uint256"
        }
      ],
      "name": "approve",
      "outputs": [
        {
          "internalType": "bool",
          "name": "",
          "type": "bool"
        }
      ],
      "stateMutability": "nonpayable",
      "type": "function"
    },
    {
      "inputs": [
        {
          "internalType": "address",
          "name": "account",
          "type": "address"
        }
      ],
      "name": "balanceOf",
      "outputs": [
        {
          "internalType": "uint256",
          "name": "",
          "type": "uint256"
        }
      ],
      "stateMutability": "view",
      "type": "function"
    },
    {
      "inputs": [
        {
          "internalType": "uint256",
          "name": "amount",
          "type": "uint256"
        }
      ],
      "name": "burn",
      "outputs": [],
      "stateMutability": "nonpayable",
      "type": "function"
    },
    {
      "inputs": [
        {
          "internalType": "address",
          "name": "account",
          "type": "address"
        },
        {
          "internalType": "uint256",
          "name": "amount",
          "type": "uint256"
        }
      ],
      "name": "burnFrom",
      "outputs": [],
      "stateMutability": "nonpayable",
      "type": "function"
    },
    {
      "inputs": [
        {
          "internalType": "address",
          "name": "issuer",
          "type": "address"
        },
        {
          "internalType": "uint256",
          "name": "stake",
          "type": "uint256"
        }
      ],
      "name": "burnStake",
      "outputs": [],
      "stateMutability": "nonpayable",
      "type": "function"
    },
    {
      "inputs": [],
      "name": "decimals",
      "outputs": [
        {
          "internalType": "uint8",
          "name": "",
          "type": "uint8"
        }
      ],
      "stateMutability": "view",
      "type": "function"
    },
    {
      "inputs": [
        {
          "internalType": "address",
          "name": "spender",
          "type": "address"
        },
        {
          "internalType": "uint256",
          "name": "subtractedValue",
          "type": "uint256"
        }
      ],
      "name": "decreaseAllowance",
      "outputs": [
        {
          "internalType": "bool",
          "name": "",
          "type": "bool"
        }
      ],
      "stateMutability": "nonpayable",
      "type": "function"
    },
    {
      "inputs": [
        {
          "components": [
            {
              "internalType": "string",
              "name": "_context",
              "type": "string"
            },
            {
              "internalType": "string",
              "name": "_type",
              "type": "string"
            },
            {
              "internalType": "string",
              "name": "id",
              "type": "string"
            },
            {
              "components": [
                {
                  "internalType": "string",
                  "name": "id",
                  "type": "string"
                },
                {
                  "internalType": "address",
                  "name": "ethereumAddress",
                  "type": "address"
                }
              ],
              "internalType": "struct VCTypesV01.Issuer",
              "name": "issuer",
              "type": "tuple"
            },
            {
              "components": [
                {
                  "internalType": "string",
                  "name": "id",
                  "type": "string"
                },
                {
                  "internalType": "address",
                  "name": "ethereumAddress",
                  "type": "address"
                },
                {
                  "internalType": "string",
                  "name": "_type",
                  "type": "string"
                },
                {
                  "internalType": "string",
                  "name": "typeSchema",
                  "type": "string"
                },
                {
                  "internalType": "string",
                  "name": "value",
                  "type": "string"
                },
                {
                  "internalType": "string",
                  "name": "encrypted",
                  "type": "string"
                },
                {
                  "internalType": "uint8",
                  "name": "trust",
                  "type": "uint8"
                },
                {
                  "internalType": "uint256",
                  "name": "stake",
                  "type": "uint256"
                },
                {
                  "internalType": "uint256",
                  "name": "price",
                  "type": "uint256"
                },
                {
                  "internalType": "uint256",
                  "name": "nbf",
                  "type": "uint256"
                },
                {
                  "internalType": "uint256",
                  "name": "exp",
                  "type": "uint256"
                }
              ],
              "internalType": "struct VCTypesV01.CredentialSubject",
              "name": "credentialSubject",
              "type": "tuple"
            },
            {
              "components": [
                {
                  "internalType": "string",
                  "name": "id",
                  "type": "string"
                },
                {
                  "internalType": "string",
                  "name": "_type",
                  "type": "string"
                }
              ],
              "internalType": "struct VCTypesV01.CredentialSchema",
              "name": "credentialSchema",
              "type": "tuple"
            },
            {
              "internalType": "string",
              "name": "issuanceDate",
              "type": "string"
            },
            {
              "internalType": "string",
              "name": "expirationDate",
              "type": "string"
            }
          ],
          "internalType": "struct VCTypesV01.VerifiableCredential",
          "name": "vc",
          "type": "tuple"
        },
        {
          "internalType": "string",
          "name": "reason",
          "type": "string"
        }
      ],
      "name": "deleteVC",
      "outputs": [
        {
          "internalType": "bool",
          "name": "",
          "type": "bool"
        }
      ],
      "stateMutability": "nonpayable",
      "type": "function"
    },
    {
      "inputs": [
        {
          "components": [
            {
              "internalType": "string",
              "name": "_context",
              "type": "string"
            },
            {
              "internalType": "string",
              "name": "_type",
              "type": "string"
            },
            {
              "internalType": "string",
              "name": "id",
              "type": "string"
            },
            {
              "components": [
                {
                  "internalType": "string",
                  "name": "id",
                  "type": "string"
                },
                {
                  "internalType": "address",
                  "name": "ethereumAddress",
                  "type": "address"
                }
              ],
              "internalType": "struct VCTypesV01.Issuer",
              "name": "issuer",
              "type": "tuple"
            },
            {
              "components": [
                {
                  "internalType": "string",
                  "name": "id",
                  "type": "string"
                },
                {
                  "internalType": "address",
                  "name": "ethereumAddress",
                  "type": "address"
                },
                {
                  "internalType": "string",
                  "name": "_type",
                  "type": "string"
                },
                {
                  "internalType": "string",
                  "name": "typeSchema",
                  "type": "string"
                },
                {
                  "internalType": "string",
                  "name": "value",
                  "type": "string"
                },
                {
                  "internalType": "string",
                  "name": "encrypted",
                  "type": "string"
                },
                {
                  "internalType": "uint8",
                  "name": "trust",
                  "type": "uint8"
                },
                {
                  "internalType": "uint256",
                  "name": "stake",
                  "type": "uint256"
                },
                {
                  "internalType": "uint256",
                  "name": "price",
                  "type": "uint256"
                },
                {
                  "internalType": "uint256",
                  "name": "nbf",
                  "type": "uint256"
                },
                {
                  "internalType": "uint256",
                  "name": "exp",
                  "type": "uint256"
                }
              ],
              "internalType": "struct VCTypesV01.CredentialSubject",
              "name": "credentialSubject",
              "type": "tuple"
            },
            {
              "components": [
                {
                  "internalType": "string",
                  "name": "id",
                  "type": "string"
                },
                {
                  "internalType": "string",
                  "name": "_type",
                  "type": "string"
                }
              ],
              "internalType": "struct VCTypesV01.CredentialSchema",
              "name": "credentialSchema",
              "type": "tuple"
            },
            {
              "internalType": "string",
              "name": "issuanceDate",
              "type": "string"
            },
            {
              "internalType": "string",
              "name": "expirationDate",
              "type": "string"
            }
          ],
          "internalType": "struct VCTypesV01.VerifiableCredential",
          "name": "vc",
          "type": "tuple"
        },
        {
          "components": [
            {
              "internalType": "string",
              "name": "_context",
              "type": "string"
            },
            {
              "internalType": "string",
              "name": "_type",
              "type": "string"
            },
            {
              "internalType": "string",
              "name": "id",
              "type": "string"
            },
            {
              "components": [
                {
                  "internalType": "string",
                  "name": "id",
                  "type": "string"
                },
                {
                  "internalType": "address",
                  "name": "ethereumAddress",
                  "type": "address"
                }
              ],
              "internalType": "struct VCTypesV01.Issuer",
              "name": "issuer",
              "type": "tuple"
            },
            {
              "components": [
                {
                  "internalType": "string",
                  "name": "id",
                  "type": "string"
                },
                {
                  "internalType": "address",
                  "name": "ethereumAddress",
                  "type": "address"
                },
                {
                  "internalType": "string",
                  "name": "_type",
                  "type": "string"
                },
                {
                  "internalType": "string",
                  "name": "typeSchema",
                  "type": "string"
                },
                {
                  "internalType": "string",
                  "name": "value",
                  "type": "string"
                },
                {
                  "internalType": "string",
                  "name": "encrypted",
                  "type": "string"
                },
                {
                  "internalType": "uint8",
                  "name": "trust",
                  "type": "uint8"
                },
                {
                  "internalType": "uint256",
                  "name": "stake",
                  "type": "uint256"
                },
                {
                  "internalType": "uint256",
                  "name": "price",
                  "type": "uint256"
                },
                {
                  "internalType": "uint256",
                  "name": "nbf",
                  "type": "uint256"
                },
                {
                  "internalType": "uint256",
                  "name": "exp",
                  "type": "uint256"
                }
              ],
              "internalType": "struct VCTypesV01.CredentialSubject",
              "name": "credentialSubject",
              "type": "tuple"
            },
            {
              "components": [
                {
                  "internalType": "string",
                  "name": "id",
                  "type": "string"
                },
                {
                  "internalType": "string",
                  "name": "_type",
                  "type": "string"
                }
              ],
              "internalType": "struct VCTypesV01.CredentialSchema",
              "name": "credentialSchema",
              "type": "tuple"
            },
            {
              "internalType": "string",
              "name": "issuanceDate",
              "type": "string"
            },
            {
              "internalType": "string",
              "name": "expirationDate",
              "type": "string"
            }
          ],
          "internalType": "struct VCTypesV01.VerifiableCredential",
          "name": "disputeVC",
          "type": "tuple"
        }
      ],
      "name": "disputeVCByGovern",
      "outputs": [
        {
          "internalType": "bool",
          "name": "",
          "type": "bool"
        }
      ],
      "stateMutability": "nonpayable",
      "type": "function"
    },
    {
      "inputs": [
        {
          "components": [
            {
              "internalType": "string",
              "name": "_context",
              "type": "string"
            },
            {
              "internalType": "string",
              "name": "_type",
              "type": "string"
            },
            {
              "internalType": "string",
              "name": "id",
              "type": "string"
            },
            {
              "components": [
                {
                  "internalType": "string",
                  "name": "id",
                  "type": "string"
                },
                {
                  "internalType": "address",
                  "name": "ethereumAddress",
                  "type": "address"
                }
              ],
              "internalType": "struct VCTypesV01.Issuer",
              "name": "issuer",
              "type": "tuple"
            },
            {
              "components": [
                {
                  "internalType": "string",
                  "name": "id",
                  "type": "string"
                },
                {
                  "internalType": "address",
                  "name": "ethereumAddress",
                  "type": "address"
                },
                {
                  "internalType": "string",
                  "name": "_type",
                  "type": "string"
                },
                {
                  "internalType": "string",
                  "name": "typeSchema",
                  "type": "string"
                },
                {
                  "internalType": "string",
                  "name": "value",
                  "type": "string"
                },
                {
                  "internalType": "string",
                  "name": "encrypted",
                  "type": "string"
                },
                {
                  "internalType": "uint8",
                  "name": "trust",
                  "type": "uint8"
                },
                {
                  "internalType": "uint256",
                  "name": "stake",
                  "type": "uint256"
                },
                {
                  "internalType": "uint256",
                  "name": "price",
                  "type": "uint256"
                },
                {
                  "internalType": "uint256",
                  "name": "nbf",
                  "type": "uint256"
                },
                {
                  "internalType": "uint256",
                  "name": "exp",
                  "type": "uint256"
                }
              ],
              "internalType": "struct VCTypesV01.CredentialSubject",
              "name": "credentialSubject",
              "type": "tuple"
            },
            {
              "components": [
                {
                  "internalType": "string",
                  "name": "id",
                  "type": "string"
                },
                {
                  "internalType": "string",
                  "name": "_type",
                  "type": "string"
                }
              ],
              "internalType": "struct VCTypesV01.CredentialSchema",
              "name": "credentialSchema",
              "type": "tuple"
            },
            {
              "internalType": "string",
              "name": "issuanceDate",
              "type": "string"
            },
            {
              "internalType": "string",
              "name": "expirationDate",
              "type": "string"
            }
          ],
          "internalType": "struct VCTypesV01.VerifiableCredential",
          "name": "vc",
          "type": "tuple"
        }
      ],
      "name": "expiredVC",
      "outputs": [
        {
          "internalType": "bool",
          "name": "",
          "type": "bool"
        }
      ],
      "stateMutability": "nonpayable",
      "type": "function"
    },
    {
      "inputs": [],
      "name": "feePercentage",
      "outputs": [
        {
          "internalType": "uint256",
          "name": "",
          "type": "uint256"
        }
      ],
      "stateMutability": "view",
      "type": "function"
    },
    {
      "inputs": [],
      "name": "feesAvailableForWithdraw",
      "outputs": [
        {
          "internalType": "uint256",
          "name": "",
          "type": "uint256"
        }
      ],
      "stateMutability": "view",
      "type": "function"
    },
    {
      "inputs": [
        {
          "internalType": "bytes32",
          "name": "role",
          "type": "bytes32"
        }
      ],
      "name": "getRoleAdmin",
      "outputs": [
        {
          "internalType": "bytes32",
          "name": "",
          "type": "bytes32"
        }
      ],
      "stateMutability": "view",
      "type": "function"
    },
    {
      "inputs": [
        {
          "internalType": "bytes32",
          "name": "role",
          "type": "bytes32"
        },
        {
          "internalType": "uint256",
          "name": "index",
          "type": "uint256"
        }
      ],
      "name": "getRoleMember",
      "outputs": [
        {
          "internalType": "address",
          "name": "",
          "type": "address"
        }
      ],
      "stateMutability": "view",
      "type": "function"
    },
    {
      "inputs": [
        {
          "internalType": "bytes32",
          "name": "role",
          "type": "bytes32"
        }
      ],
      "name": "getRoleMemberCount",
      "outputs": [
        {
          "internalType": "uint256",
          "name": "",
          "type": "uint256"
        }
      ],
      "stateMutability": "view",
      "type": "function"
    },
    {
      "inputs": [
        {
          "components": [
            {
              "internalType": "string",
              "name": "_context",
              "type": "string"
            },
            {
              "internalType": "string",
              "name": "_type",
              "type": "string"
            },
            {
              "internalType": "string",
              "name": "id",
              "type": "string"
            },
            {
              "components": [
                {
                  "internalType": "string",
                  "name": "id",
                  "type": "string"
                },
                {
                  "internalType": "address",
                  "name": "ethereumAddress",
                  "type": "address"
                }
              ],
              "internalType": "struct VCTypesV01.Issuer",
              "name": "issuer",
              "type": "tuple"
            },
            {
              "components": [
                {
                  "internalType": "string",
                  "name": "id",
                  "type": "string"
                },
                {
                  "internalType": "address",
                  "name": "ethereumAddress",
                  "type": "address"
                },
                {
                  "internalType": "string",
                  "name": "_type",
                  "type": "string"
                },
                {
                  "internalType": "string",
                  "name": "typeSchema",
                  "type": "string"
                },
                {
                  "internalType": "string",
                  "name": "value",
                  "type": "string"
                },
                {
                  "internalType": "string",
                  "name": "encrypted",
                  "type": "string"
                },
                {
                  "internalType": "uint8",
                  "name": "trust",
                  "type": "uint8"
                },
                {
                  "internalType": "uint256",
                  "name": "stake",
                  "type": "uint256"
                },
                {
                  "internalType": "uint256",
                  "name": "price",
                  "type": "uint256"
                },
                {
                  "internalType": "uint256",
                  "name": "nbf",
                  "type": "uint256"
                },
                {
                  "internalType": "uint256",
                  "name": "exp",
                  "type": "uint256"
                }
              ],
              "internalType": "struct VCTypesV01.CredentialSubject",
              "name": "credentialSubject",
              "type": "tuple"
            },
            {
              "components": [
                {
                  "internalType": "string",
                  "name": "id",
                  "type": "string"
                },
                {
                  "internalType": "string",
                  "name": "_type",
                  "type": "string"
                }
              ],
              "internalType": "struct VCTypesV01.CredentialSchema",
              "name": "credentialSchema",
              "type": "tuple"
            },
            {
              "internalType": "string",
              "name": "issuanceDate",
              "type": "string"
            },
            {
              "internalType": "string",
              "name": "expirationDate",
              "type": "string"
            }
          ],
          "internalType": "struct VCTypesV01.VerifiableCredential",
          "name": "vc",
          "type": "tuple"
        }
      ],
      "name": "getUuid",
      "outputs": [
        {
          "internalType": "uint256",
          "name": "",
          "type": "uint256"
        }
      ],
      "stateMutability": "pure",
      "type": "function"
    },
    {
      "inputs": [
        {
          "components": [
            {
              "internalType": "string",
              "name": "_context",
              "type": "string"
            },
            {
              "internalType": "string",
              "name": "_type",
              "type": "string"
            },
            {
              "internalType": "string",
              "name": "id",
              "type": "string"
            },
            {
              "components": [
                {
                  "internalType": "string",
                  "name": "id",
                  "type": "string"
                },
                {
                  "internalType": "address",
                  "name": "ethereumAddress",
                  "type": "address"
                }
              ],
              "internalType": "struct VCTypesV01.Issuer",
              "name": "issuer",
              "type": "tuple"
            },
            {
              "components": [
                {
                  "internalType": "string",
                  "name": "id",
                  "type": "string"
                },
                {
                  "internalType": "address",
                  "name": "ethereumAddress",
                  "type": "address"
                },
                {
                  "internalType": "string",
                  "name": "_type",
                  "type": "string"
                },
                {
                  "internalType": "string",
                  "name": "typeSchema",
                  "type": "string"
                },
                {
                  "internalType": "string",
                  "name": "value",
                  "type": "string"
                },
                {
                  "internalType": "string",
                  "name": "encrypted",
                  "type": "string"
                },
                {
                  "internalType": "uint8",
                  "name": "trust",
                  "type": "uint8"
                },
                {
                  "internalType": "uint256",
                  "name": "stake",
                  "type": "uint256"
                },
                {
                  "internalType": "uint256",
                  "name": "price",
                  "type": "uint256"
                },
                {
                  "internalType": "uint256",
                  "name": "nbf",
                  "type": "uint256"
                },
                {
                  "internalType": "uint256",
                  "name": "exp",
                  "type": "uint256"
                }
              ],
              "internalType": "struct VCTypesV01.CredentialSubject",
              "name": "credentialSubject",
              "type": "tuple"
            },
            {
              "components": [
                {
                  "internalType": "string",
                  "name": "id",
                  "type": "string"
                },
                {
                  "internalType": "string",
                  "name": "_type",
                  "type": "string"
                }
              ],
              "internalType": "struct VCTypesV01.CredentialSchema",
              "name": "credentialSchema",
              "type": "tuple"
            },
            {
              "internalType": "string",
              "name": "issuanceDate",
              "type": "string"
            },
            {
              "internalType": "string",
              "name": "expirationDate",
              "type": "string"
            }
          ],
          "internalType": "struct VCTypesV01.VerifiableCredential",
          "name": "vc",
          "type": "tuple"
        }
      ],
      "name": "getVCStatus",
      "outputs": [
        {
          "internalType": "string",
          "name": "",
          "type": "string"
        }
      ],
      "stateMutability": "view",
      "type": "function"
    },
    {
      "inputs": [
        {
          "internalType": "bytes32",
          "name": "role",
          "type": "bytes32"
        },
        {
          "internalType": "address",
          "name": "account",
          "type": "address"
        }
      ],
      "name": "grantRole",
      "outputs": [],
      "stateMutability": "nonpayable",
      "type": "function"
    },
    {
      "inputs": [
        {
          "internalType": "bytes32",
          "name": "role",
          "type": "bytes32"
        },
        {
          "internalType": "address",
          "name": "account",
          "type": "address"
        }
      ],
      "name": "hasRole",
      "outputs": [
        {
          "internalType": "bool",
          "name": "",
          "type": "bool"
        }
      ],
      "stateMutability": "view",
      "type": "function"
    },
    {
      "inputs": [
        {
          "internalType": "address",
          "name": "spender",
          "type": "address"
        },
        {
          "internalType": "uint256",
          "name": "addedValue",
          "type": "uint256"
        }
      ],
      "name": "increaseAllowance",
      "outputs": [
        {
          "internalType": "bool",
          "name": "",
          "type": "bool"
        }
      ],
      "stateMutability": "nonpayable",
      "type": "function"
    },
    {
      "inputs": [
        {
          "internalType": "string",
          "name": "name",
          "type": "string"
        },
        {
          "internalType": "string",
          "name": "symbol",
          "type": "string"
        },
        {
          "internalType": "string",
          "name": "version",
          "type": "string"
        }
      ],
      "name": "initialize",
      "outputs": [],
      "stateMutability": "nonpayable",
      "type": "function"
    },
    {
      "inputs": [
        {
          "internalType": "address",
          "name": "forwarder",
          "type": "address"
        }
      ],
      "name": "isTrustedForwarder",
      "outputs": [
        {
          "internalType": "bool",
          "name": "",
          "type": "bool"
        }
      ],
      "stateMutability": "view",
      "type": "function"
    },
    {
      "inputs": [],
      "name": "maxPriceToIssue",
      "outputs": [
        {
          "internalType": "uint256",
          "name": "",
          "type": "uint256"
        }
      ],
      "stateMutability": "view",
      "type": "function"
    },
    {
      "inputs": [],
      "name": "maxStakeToIssue",
      "outputs": [
        {
          "internalType": "uint256",
          "name": "",
          "type": "uint256"
        }
      ],
      "stateMutability": "view",
      "type": "function"
    },
    {
      "inputs": [],
      "name": "minBalanceToIssue",
      "outputs": [
        {
          "internalType": "uint256",
          "name": "",
          "type": "uint256"
        }
      ],
      "stateMutability": "view",
      "type": "function"
    },
    {
      "inputs": [],
      "name": "minBalanceToReceive",
      "outputs": [
        {
          "internalType": "uint256",
          "name": "",
          "type": "uint256"
        }
      ],
      "stateMutability": "view",
      "type": "function"
    },
    {
      "inputs": [],
      "name": "minBalanceToTransfer",
      "outputs": [
        {
          "internalType": "uint256",
          "name": "",
          "type": "uint256"
        }
      ],
      "stateMutability": "view",
      "type": "function"
    },
    {
      "inputs": [],
      "name": "minPriceToIssue",
      "outputs": [
        {
          "internalType": "uint256",
          "name": "",
          "type": "uint256"
        }
      ],
      "stateMutability": "view",
      "type": "function"
    },
    {
      "inputs": [],
      "name": "minStakeToIssue",
      "outputs": [
        {
          "internalType": "uint256",
          "name": "",
          "type": "uint256"
        }
      ],
      "stateMutability": "view",
      "type": "function"
    },
    {
      "inputs": [
        {
          "internalType": "address",
          "name": "to",
          "type": "address"
        },
        {
          "internalType": "uint256",
          "name": "amount",
          "type": "uint256"
        }
      ],
      "name": "mint",
      "outputs": [],
      "stateMutability": "nonpayable",
      "type": "function"
    },
    {
      "inputs": [],
      "name": "name",
      "outputs": [
        {
          "internalType": "string",
          "name": "",
          "type": "string"
        }
      ],
      "stateMutability": "view",
      "type": "function"
    },
    {
      "inputs": [],
      "name": "pause",
      "outputs": [],
      "stateMutability": "nonpayable",
      "type": "function"
    },
    {
      "inputs": [],
      "name": "paused",
      "outputs": [
        {
          "internalType": "bool",
          "name": "",
          "type": "bool"
        }
      ],
      "stateMutability": "view",
      "type": "function"
    },
    {
      "inputs": [
        {
          "internalType": "address",
          "name": "dest",
          "type": "address"
        }
      ],
      "name": "payments",
      "outputs": [
        {
          "internalType": "uint256",
          "name": "",
          "type": "uint256"
        }
      ],
      "stateMutability": "view",
      "type": "function"
    },
    {
      "inputs": [],
      "name": "proxiableUUID",
      "outputs": [
        {
          "internalType": "bytes32",
          "name": "",
          "type": "bytes32"
        }
      ],
      "stateMutability": "view",
      "type": "function"
    },
    {
      "inputs": [
        {
          "components": [
            {
              "internalType": "string",
              "name": "_context",
              "type": "string"
            },
            {
              "internalType": "string",
              "name": "_type",
              "type": "string"
            },
            {
              "internalType": "string",
              "name": "id",
              "type": "string"
            },
            {
              "components": [
                {
                  "internalType": "string",
                  "name": "id",
                  "type": "string"
                },
                {
                  "internalType": "address",
                  "name": "ethereumAddress",
                  "type": "address"
                }
              ],
              "internalType": "struct VCTypesV01.Issuer",
              "name": "issuer",
              "type": "tuple"
            },
            {
              "components": [
                {
                  "internalType": "string",
                  "name": "id",
                  "type": "string"
                },
                {
                  "internalType": "address",
                  "name": "ethereumAddress",
                  "type": "address"
                },
                {
                  "internalType": "string",
                  "name": "_type",
                  "type": "string"
                },
                {
                  "internalType": "string",
                  "name": "typeSchema",
                  "type": "string"
                },
                {
                  "internalType": "string",
                  "name": "value",
                  "type": "string"
                },
                {
                  "internalType": "string",
                  "name": "encrypted",
                  "type": "string"
                },
                {
                  "internalType": "uint8",
                  "name": "trust",
                  "type": "uint8"
                },
                {
                  "internalType": "uint256",
                  "name": "stake",
                  "type": "uint256"
                },
                {
                  "internalType": "uint256",
                  "name": "price",
                  "type": "uint256"
                },
                {
                  "internalType": "uint256",
                  "name": "nbf",
                  "type": "uint256"
                },
                {
                  "internalType": "uint256",
                  "name": "exp",
                  "type": "uint256"
                }
              ],
              "internalType": "struct VCTypesV01.CredentialSubject",
              "name": "credentialSubject",
              "type": "tuple"
            },
            {
              "components": [
                {
                  "internalType": "string",
                  "name": "id",
                  "type": "string"
                },
                {
                  "internalType": "string",
                  "name": "_type",
                  "type": "string"
                }
              ],
              "internalType": "struct VCTypesV01.CredentialSchema",
              "name": "credentialSchema",
              "type": "tuple"
            },
            {
              "internalType": "string",
              "name": "issuanceDate",
              "type": "string"
            },
            {
              "internalType": "string",
              "name": "expirationDate",
              "type": "string"
            }
          ],
          "internalType": "struct VCTypesV01.VerifiableCredential",
          "name": "vc",
          "type": "tuple"
        },
        {
          "internalType": "bytes",
          "name": "proofValue",
          "type": "bytes"
        }
      ],
      "name": "registerVC",
      "outputs": [
        {
          "internalType": "bool",
          "name": "",
          "type": "bool"
        }
      ],
      "stateMutability": "payable",
      "type": "function"
    },
    {
      "inputs": [
        {
          "internalType": "uint256",
          "name": "",
          "type": "uint256"
        }
      ],
      "name": "registry",
      "outputs": [
        {
          "internalType": "enum KRBTokenV01.Status",
          "name": "credentialStatus",
          "type": "uint8"
        },
        {
          "internalType": "uint256",
          "name": "disputedBy",
          "type": "uint256"
        }
      ],
      "stateMutability": "view",
      "type": "function"
    },
    {
      "inputs": [
        {
          "internalType": "bytes32",
          "name": "role",
          "type": "bytes32"
        },
        {
          "internalType": "address",
          "name": "account",
          "type": "address"
        }
      ],
      "name": "renounceRole",
      "outputs": [],
      "stateMutability": "nonpayable",
      "type": "function"
    },
    {
      "inputs": [
        {
          "internalType": "bytes32",
          "name": "role",
          "type": "bytes32"
        },
        {
          "internalType": "address",
          "name": "account",
          "type": "address"
        }
      ],
      "name": "revokeRole",
      "outputs": [],
      "stateMutability": "nonpayable",
      "type": "function"
    },
    {
      "inputs": [
        {
          "components": [
            {
              "internalType": "string",
              "name": "_context",
              "type": "string"
            },
            {
              "internalType": "string",
              "name": "_type",
              "type": "string"
            },
            {
              "internalType": "string",
              "name": "id",
              "type": "string"
            },
            {
              "components": [
                {
                  "internalType": "string",
                  "name": "id",
                  "type": "string"
                },
                {
                  "internalType": "address",
                  "name": "ethereumAddress",
                  "type": "address"
                }
              ],
              "internalType": "struct VCTypesV01.Issuer",
              "name": "issuer",
              "type": "tuple"
            },
            {
              "components": [
                {
                  "internalType": "string",
                  "name": "id",
                  "type": "string"
                },
                {
                  "internalType": "address",
                  "name": "ethereumAddress",
                  "type": "address"
                },
                {
                  "internalType": "string",
                  "name": "_type",
                  "type": "string"
                },
                {
                  "internalType": "string",
                  "name": "typeSchema",
                  "type": "string"
                },
                {
                  "internalType": "string",
                  "name": "value",
                  "type": "string"
                },
                {
                  "internalType": "string",
                  "name": "encrypted",
                  "type": "string"
                },
                {
                  "internalType": "uint8",
                  "name": "trust",
                  "type": "uint8"
                },
                {
                  "internalType": "uint256",
                  "name": "stake",
                  "type": "uint256"
                },
                {
                  "internalType": "uint256",
                  "name": "price",
                  "type": "uint256"
                },
                {
                  "internalType": "uint256",
                  "name": "nbf",
                  "type": "uint256"
                },
                {
                  "internalType": "uint256",
                  "name": "exp",
                  "type": "uint256"
                }
              ],
              "internalType": "struct VCTypesV01.CredentialSubject",
              "name": "credentialSubject",
              "type": "tuple"
            },
            {
              "components": [
                {
                  "internalType": "string",
                  "name": "id",
                  "type": "string"
                },
                {
                  "internalType": "string",
                  "name": "_type",
                  "type": "string"
                }
              ],
              "internalType": "struct VCTypesV01.CredentialSchema",
              "name": "credentialSchema",
              "type": "tuple"
            },
            {
              "internalType": "string",
              "name": "issuanceDate",
              "type": "string"
            },
            {
              "internalType": "string",
              "name": "expirationDate",
              "type": "string"
            }
          ],
          "internalType": "struct VCTypesV01.VerifiableCredential",
          "name": "vc",
          "type": "tuple"
        },
        {
          "internalType": "string",
          "name": "reason",
          "type": "string"
        }
      ],
      "name": "revokeVC",
      "outputs": [
        {
          "internalType": "bool",
          "name": "",
          "type": "bool"
        }
      ],
      "stateMutability": "nonpayable",
      "type": "function"
    },
    {
      "inputs": [
        {
          "internalType": "address",
          "name": "issuer",
          "type": "address"
        }
      ],
      "name": "stakeOf",
      "outputs": [
        {
          "internalType": "uint256",
          "name": "",
          "type": "uint256"
        }
      ],
      "stateMutability": "view",
      "type": "function"
    },
    {
      "inputs": [
        {
          "internalType": "bytes4",
          "name": "interfaceId",
          "type": "bytes4"
        }
      ],
      "name": "supportsInterface",
      "outputs": [
        {
          "internalType": "bool",
          "name": "",
          "type": "bool"
        }
      ],
      "stateMutability": "view",
      "type": "function"
    },
    {
      "inputs": [
        {
          "components": [
            {
              "internalType": "string",
              "name": "_context",
              "type": "string"
            },
            {
              "internalType": "string",
              "name": "_type",
              "type": "string"
            },
            {
              "internalType": "string",
              "name": "id",
              "type": "string"
            },
            {
              "components": [
                {
                  "internalType": "string",
                  "name": "id",
                  "type": "string"
                },
                {
                  "internalType": "address",
                  "name": "ethereumAddress",
                  "type": "address"
                }
              ],
              "internalType": "struct VCTypesV01.Issuer",
              "name": "issuer",
              "type": "tuple"
            },
            {
              "components": [
                {
                  "internalType": "string",
                  "name": "id",
                  "type": "string"
                },
                {
                  "internalType": "address",
                  "name": "ethereumAddress",
                  "type": "address"
                },
                {
                  "internalType": "string",
                  "name": "_type",
                  "type": "string"
                },
                {
                  "internalType": "string",
                  "name": "typeSchema",
                  "type": "string"
                },
                {
                  "internalType": "string",
                  "name": "value",
                  "type": "string"
                },
                {
                  "internalType": "string",
                  "name": "encrypted",
                  "type": "string"
                },
                {
                  "internalType": "uint8",
                  "name": "trust",
                  "type": "uint8"
                },
                {
                  "internalType": "uint256",
                  "name": "stake",
                  "type": "uint256"
                },
                {
                  "internalType": "uint256",
                  "name": "price",
                  "type": "uint256"
                },
                {
                  "internalType": "uint256",
                  "name": "nbf",
                  "type": "uint256"
                },
                {
                  "internalType": "uint256",
                  "name": "exp",
                  "type": "uint256"
                }
              ],
              "internalType": "struct VCTypesV01.CredentialSubject",
              "name": "credentialSubject",
              "type": "tuple"
            },
            {
              "components": [
                {
                  "internalType": "string",
                  "name": "id",
                  "type": "string"
                },
                {
                  "internalType": "string",
                  "name": "_type",
                  "type": "string"
                }
              ],
              "internalType": "struct VCTypesV01.CredentialSchema",
              "name": "credentialSchema",
              "type": "tuple"
            },
            {
              "internalType": "string",
              "name": "issuanceDate",
              "type": "string"
            },
            {
              "internalType": "string",
              "name": "expirationDate",
              "type": "string"
            }
          ],
          "internalType": "struct VCTypesV01.VerifiableCredential",
          "name": "vc",
          "type": "tuple"
        },
        {
          "internalType": "string",
          "name": "reason",
          "type": "string"
        }
      ],
      "name": "suspendVC",
      "outputs": [
        {
          "internalType": "bool",
          "name": "",
          "type": "bool"
        }
      ],
      "stateMutability": "nonpayable",
      "type": "function"
    },
    {
      "inputs": [],
      "name": "symbol",
      "outputs": [
        {
          "internalType": "string",
          "name": "",
          "type": "string"
        }
      ],
      "stateMutability": "view",
      "type": "function"
    },
    {
      "inputs": [],
      "name": "totalSupply",
      "outputs": [
        {
          "internalType": "uint256",
          "name": "",
          "type": "uint256"
        }
      ],
      "stateMutability": "view",
      "type": "function"
    },
    {
      "inputs": [
        {
          "internalType": "address",
          "name": "to",
          "type": "address"
        },
        {
          "internalType": "uint256",
          "name": "amount",
          "type": "uint256"
        }
      ],
      "name": "transfer",
      "outputs": [
        {
          "internalType": "bool",
          "name": "",
          "type": "bool"
        }
      ],
      "stateMutability": "nonpayable",
      "type": "function"
    },
    {
      "inputs": [
        {
          "internalType": "address",
          "name": "from",
          "type": "address"
        },
        {
          "internalType": "address",
          "name": "to",
          "type": "address"
        },
        {
          "internalType": "uint256",
          "name": "amount",
          "type": "uint256"
        }
      ],
      "name": "transferFrom",
      "outputs": [
        {
          "internalType": "bool",
          "name": "",
          "type": "bool"
        }
      ],
      "stateMutability": "nonpayable",
      "type": "function"
    },
    {
      "inputs": [],
      "name": "unpause",
      "outputs": [],
      "stateMutability": "nonpayable",
      "type": "function"
    },
    {
      "inputs": [
        {
          "internalType": "uint256",
          "name": "newMinBalanceToTransfer",
          "type": "uint256"
        },
        {
          "internalType": "uint256",
          "name": "newMinBalanceToReceive",
          "type": "uint256"
        },
        {
          "internalType": "uint256",
          "name": "newMinBalanceToIssue",
          "type": "uint256"
        },
        {
          "internalType": "uint256",
          "name": "newFeePercentage",
          "type": "uint256"
        },
        {
          "internalType": "uint256",
          "name": "newMinPrice",
          "type": "uint256"
        },
        {
          "internalType": "uint256",
          "name": "newMaxPrice",
          "type": "uint256"
        },
        {
          "internalType": "uint256",
          "name": "newMinStake",
          "type": "uint256"
        },
        {
          "internalType": "uint256",
          "name": "newMaxStake",
          "type": "uint256"
        },
        {
          "internalType": "address",
          "name": "trustedForwarder",
          "type": "address"
        }
      ],
      "name": "updateParameters",
      "outputs": [],
      "stateMutability": "nonpayable",
      "type": "function"
    },
    {
      "inputs": [
        {
          "internalType": "address",
          "name": "newImplementation",
          "type": "address"
        }
      ],
      "name": "upgradeTo",
      "outputs": [],
      "stateMutability": "nonpayable",
      "type": "function"
    },
    {
      "inputs": [
        {
          "internalType": "address",
          "name": "newImplementation",
          "type": "address"
        },
        {
          "internalType": "bytes",
          "name": "data",
          "type": "bytes"
        }
      ],
      "name": "upgradeToAndCall",
      "outputs": [],
      "stateMutability": "payable",
      "type": "function"
    },
    {
      "inputs": [
        {
          "internalType": "address payable",
          "name": "_to",
          "type": "address"
        },
        {
          "internalType": "uint256",
          "name": "_amount",
          "type": "uint256"
        }
      ],
      "name": "withdrawFees",
      "outputs": [],
      "stateMutability": "nonpayable",
      "type": "function"
    },
    {
      "inputs": [
        {
          "internalType": "address payable",
          "name": "payee",
          "type": "address"
        }
      ],
      "name": "withdrawPayments",
      "outputs": [],
      "stateMutability": "nonpayable",
      "type": "function"
    }
  ],
  "bytecode": "0x60a06040523060805234801561001457600080fd5b50608051615de06200004d60003960008181611086015281816110c6015281816111b0015281816111f001526112680152615de06000f3fe6080604052600436106102b65760003560e01c806379cc679011610171578063ad3b1b47116100d2578063ad3b1b47146107f8578063af4e720d14610818578063bcd689931461082f578063c0d506d61461084f578063ca15c8731461086f578063ca2a8cfc1461088f578063ce556f9d146108af578063d547741f146108cf578063dd62ed3e146108ef578063de5785d51461090f578063de9d2b1c14610926578063dec9cafe1461093d578063e2982c2114610950578063e5a2b28e14610970578063ee2b1b4d1461098757600080fd5b806379cc67901461065e5780638456cb591461067e578063888bb7b5146106935780638993a3e5146106b35780639010d07c146106d357806391d148541461070057806395d89b41146107205780639c70287c14610735578063a001ecdd14610755578063a217fddf1461076c578063a457c2d714610781578063a6487c53146107a1578063a775aabd146107c1578063a9059cbb146107d857600080fd5b80633659cfe61161021b5780633659cfe61461048657806338b7f446146104a657806339509351146104c85780633f4ba83a146104e857806340c10f19146104fd578063426233601461051d57806342966c68146105545780634f1ef2861461057457806352d1902d14610587578063572b6c051461059c5780635893253c146105bc5780635c975abb1461060557806370a082311461061e578063716f4d901461063e57600080fd5b806301ffc9a7146102bb57806306fdde03146102f057806307a0d7981461031257806307a7729214610337578063095ea7b31461034e57806318160ddd1461036e57806323b872dd14610383578063248a9ca3146103a35780632a401e81146103d35780632f2ff15d146103f3578063313ce5671461041557806331b3eb94146104315780633644e5151461045157806336568abe14610466575b600080fd5b3480156102c757600080fd5b506102db6102d63660046146a5565b61099e565b60405190151581526020015b60405180910390f35b3480156102fc57600080fd5b506103056109c9565b6040516102e79190614727565b34801561031e57600080fd5b506103296102955481565b6040519081526020016102e7565b34801561034357600080fd5b506103296102905481565b34801561035a57600080fd5b506102db61036936600461475f565b610a5b565b34801561037a57600080fd5b5060cb54610329565b34801561038f57600080fd5b506102db61039e36600461478b565b610a7d565b3480156103af57600080fd5b506103296103be3660046147cc565b60009081526065602052604090206001015490565b3480156103df57600080fd5b506102db6103ee366004614c49565b610aad565b3480156103ff57600080fd5b5061041361040e366004614cac565b610f4e565b005b34801561042157600080fd5b50604051601281526020016102e7565b34801561043d57600080fd5b5061041361044c366004614cdc565b610f78565b34801561045d57600080fd5b50610329610fde565b34801561047257600080fd5b50610413610481366004614cac565b610fed565b34801561049257600080fd5b506104136104a1366004614cdc565b61107b565b3480156104b257600080fd5b50610329600080516020615d2483398151915281565b3480156104d457600080fd5b506102db6104e336600461475f565b611144565b3480156104f457600080fd5b50610413611170565b34801561050957600080fd5b5061041361051836600461475f565b611182565b34801561052957600080fd5b50610329610538366004614cdc565b6001600160a01b03166000908152610299602052604090205490565b34801561056057600080fd5b5061041361056f3660046147cc565b611194565b610413610582366004614cf9565b6111a5565b34801561059357600080fd5b5061032961125b565b3480156105a857600080fd5b506102db6105b7366004614cdc565b611309565b3480156105c857600080fd5b506105f76105d73660046147cc565b610298602052600090815260409020805460019091015460ff9091169082565b6040516102e7929190614d54565b34801561061157600080fd5b5061012d5460ff166102db565b34801561062a57600080fd5b50610329610639366004614cdc565b61131e565b34801561064a57600080fd5b506102db610659366004614d80565b611339565b34801561066a57600080fd5b5061041361067936600461475f565b6114ac565b34801561068a57600080fd5b506104136114c8565b34801561069f57600080fd5b506102db6106ae366004614dd9565b6114d8565b3480156106bf57600080fd5b506104136106ce366004614e15565b61159e565b3480156106df57600080fd5b506106f36106ee366004614e89565b611712565b6040516102e79190614eab565b34801561070c57600080fd5b506102db61071b366004614cac565b61172a565b34801561072c57600080fd5b50610305611755565b34801561074157600080fd5b5061041361075036600461475f565b611764565b34801561076157600080fd5b506103296102965481565b34801561077857600080fd5b50610329600081565b34801561078d57600080fd5b506102db61079c36600461475f565b611776565b3480156107ad57600080fd5b506104136107bc366004614ebf565b611807565b3480156107cd57600080fd5b506103296102935481565b3480156107e457600080fd5b506102db6107f336600461475f565b611925565b34801561080457600080fd5b5061041361081336600461475f565b61193d565b34801561082457600080fd5b506103296102915481565b34801561083b57600080fd5b5061032961084a366004614dd9565b6119d5565b34801561085b57600080fd5b5061030561086a366004614dd9565b6119e0565b34801561087b57600080fd5b5061032961088a3660046147cc565b611ba7565b34801561089b57600080fd5b506102db6108aa366004614d80565b611bbe565b3480156108bb57600080fd5b506102db6108ca366004614d80565b611c9c565b3480156108db57600080fd5b506104136108ea366004614cac565b611df4565b3480156108fb57600080fd5b5061032961090a366004614f46565b611e19565b34801561091b57600080fd5b506103296102975481565b34801561093257600080fd5b506103296102945481565b6102db61094b366004614d80565b611e44565b34801561095c57600080fd5b5061032961096b366004614cdc565b6123a7565b34801561097c57600080fd5b5061032961028f5481565b34801561099357600080fd5b506103296102925481565b60006001600160e01b03198216635a05180f60e01b14806109c357506109c38261241a565b92915050565b606060cc80546109d890614f74565b80601f0160208091040260200160405190810160405280929190818152602001828054610a0490614f74565b8015610a515780601f10610a2657610100808354040283529160200191610a51565b820191906000526020600020905b815481529060010190602001808311610a3457829003601f168201915b5050505050905090565b600080610a6661244f565b9050610a73818585612471565b5060019392505050565b600080610a8861244f565b9050610a95858285612595565b610aa0858585612609565b60019150505b9392505050565b6000610ab76127d0565b604051602001610aff907f5b2256657269666961626c6543726564656e7469616c222c224469737075746581526b43726564656e7469616c225d60a01b6020820152602c0190565b604051602081830303815290604052805190602001208260200151604051602001610b2a9190614faf565b6040516020818303038152906040528051906020012014610bb15760405162461bcd60e51b815260206004820152603660248201527f4b5242546f6b656e3a206469737075746520636c61696d2074797065206d75736044820152751d08189948111a5cdc1d5d1950dc9959195b9d1a585b60521b60648201526084015b60405180910390fd5b610bb961244f565b6001600160a01b03168260600151602001516001600160a01b031614610c355760405162461bcd60e51b815260206004820152602b60248201527f4b5242546f6b656e3a20697373756572206d7573742062652074686520476f7660448201526a65726e206164647265737360a81b6064820152608401610ba8565b8260400151604051602001610c4a9190614faf565b60408051601f198184030181529082905280516020918201206080850151519092610c759201614faf565b6040516020818303038152906040528051906020012014610cfe5760405162461bcd60e51b815260206004820152603c60248201527f4b5242546f6b656e3a206469737075746556432063726564656e7469616c537560448201527f626a6563742069642064696666657265732066726f6d205643206964000000006064820152608401610ba8565b610d0782612836565b6000610d12846119d5565b9050600080828152610298602052604090205460ff166005811115610d3957610d39614d3e565b14158015610d6b575060026000828152610298602052604090205460ff166005811115610d6857610d68614d3e565b14155b610dc35760405162461bcd60e51b815260206004820152602360248201527f4b5242546f6b656e3a20564320737461746520616c72656164792064697370756044820152621d195960ea1b6064820152608401610ba8565b6000610dce846119d5565b60008381526102986020908152604091829020805460ff1916600217815560010183905581518581529081018390529192507f7a5b7de3bc82f24e3a2ec84fdd3d22a2611adff3df42e2917470dc204f0eb0a4910160405180910390a16000818152610298602052604090819020805460ff19166001179055517fb4323e298f3a82d5cf939b5e4ed408526ed5f8ebe42169c54ec2b667a85e1bc990610e77908390879061510f565b60405180910390a16000610e8d6012600a615306565b866080015160e00151610ea09190615315565b9050610eb486606001516020015182612b1c565b6000610ecb82886080015160c0015160ff16612c24565b9050610edf87608001516020015182612c33565b610ef187606001516020015182612c33565b6000610eff6012600a615306565b876080015160e00151610f129190615315565b90506000610f2b82896080015160c0015160ff16612c24565b9050610f3f88608001516020015182612d7b565b50600198975050505050505050565b600082815260656020526040902060010154610f6981612e54565b610f738383612e65565b505050565b610229546040516351cff8d960e01b81526001600160a01b03909116906351cff8d990610fa9908490600401614eab565b600060405180830381600087803b158015610fc357600080fd5b505af1158015610fd7573d6000803e3d6000fd5b5050505050565b6000610fe8612e87565b905090565b610ff561244f565b6001600160a01b0316816001600160a01b03161461106d5760405162461bcd60e51b815260206004820152602f60248201527f416363657373436f6e74726f6c3a2063616e206f6e6c792072656e6f756e636560448201526e103937b632b9903337b91039b2b63360891b6064820152608401610ba8565b6110778282612f04565b5050565b306001600160a01b037f00000000000000000000000000000000000000000000000000000000000000001614156110c45760405162461bcd60e51b8152600401610ba890615334565b7f00000000000000000000000000000000000000000000000000000000000000006001600160a01b03166110f6612f26565b6001600160a01b03161461111c5760405162461bcd60e51b8152600401610ba890615380565b61112581612f42565b6040805160008082526020820190925261114191839190612f4a565b50565b60008061114f61244f565b9050610a738185856111618589611e19565b61116b91906153cc565b612471565b6111786127d0565b6111806130b5565b565b61118a6127d0565b6110778282612d7b565b61114161119f61244f565b82612c33565b306001600160a01b037f00000000000000000000000000000000000000000000000000000000000000001614156111ee5760405162461bcd60e51b8152600401610ba890615334565b7f00000000000000000000000000000000000000000000000000000000000000006001600160a01b0316611220612f26565b6001600160a01b0316146112465760405162461bcd60e51b8152600401610ba890615380565b61124f82612f42565b61107782826001612f4a565b6000306001600160a01b037f000000000000000000000000000000000000000000000000000000000000000016146112f65760405162461bcd60e51b815260206004820152603860248201527f555550535570677261646561626c653a206d757374206e6f742062652063616c6044820152771b1959081d1a1c9bdd59da0819195b1959d85d1958d85b1b60421b6064820152608401610ba8565b50600080516020615d4483398151915290565b61028e546001600160a01b0391821691161490565b6001600160a01b0316600090815260c9602052604090205490565b600061134361244f565b6001600160a01b03168360800151602001516001600160a01b03161461137b5760405162461bcd60e51b8152600401610ba8906153e4565b6000611386846119d5565b905060016000828152610298602052604090205460ff1660058111156113ae576113ae614d3e565b146113cb5760405162461bcd60e51b8152600401610ba89061543a565b6000818152610298602052604090819020805460ff19169055517f9033e030b285e24d878a56c0809910a4fbc2c14bc876c3060bfdefc4f21ea68c906114149083908690615471565b60405180910390a1600061142a6012600a615306565b856080015160e0015161143d9190615315565b9050600061145682876080015160c0015160ff16612c24565b905061146a86606001516020015183612b1c565b61147c86606001516020015183612d7b565b61148e86608001516020015182612c33565b6114a086606001516020015182612c33565b50600195945050505050565b6114be826114b861244f565b83612595565b6110778282612c33565b6114d06127d0565b611180613108565b6000806114e4836119d5565b90508260800151610140015142111561158e5760006115056012600a615306565b846080015160e001516115189190615315565b905061152c84606001516020015182612b1c565b61153e84606001516020015182612d7b565b60008281526102986020908152604091829020805460ff1916600517905590518381527ff80dbaea4785589e52984ca36a31de106adc77759539a5c7d92883bf49692fe9910160405180910390a1505b5050608001516101400151421190565b6115a66127d0565b61028f899055610290889055610291879055610296869055848410156116345760405162461bcd60e51b815260206004820152603f60248201527f4b5242546f6b656e3a206e65774d61785072696365206d75737420626520677260448201527f6561746572206f7220657175616c207468616e206e65774d696e5072696365006064820152608401610ba8565b610292859055610293849055828210156116b65760405162461bcd60e51b815260206004820152603f60248201527f4b5242546f6b656e3a206e65774d61785374616b65206d75737420626520677260448201527f6561746572206f7220657175616c207468616e206e65774d696e5374616b65006064820152608401610ba8565b61029483905561029582905561028e80546001600160a01b0319166001600160a01b0383161790556040517ff2e795d4a33ae9a0d3282888375b8ae781ea4de1cbf101ac96150aa95ccff0b490600090a1505050505050505050565b6000828152609760205260408120610aa69083613147565b60009182526065602090815260408084206001600160a01b0393909316845291905290205460ff1690565b606060cd80546109d890614f74565b61176c6127d0565b6110778282612b1c565b60008061178161244f565b9050600061178f8286611e19565b9050838110156117ef5760405162461bcd60e51b815260206004820152602560248201527f45524332303a2064656372656173656420616c6c6f77616e63652062656c6f77604482015264207a65726f60d81b6064820152608401610ba8565b6117fc8286868403612471565b506001949350505050565b600054610100900460ff16158080156118275750600054600160ff909116105b80611848575061183630613153565b158015611848575060005460ff166001145b6118ab5760405162461bcd60e51b815260206004820152602e60248201527f496e697469616c697a61626c653a20636f6e747261637420697320616c72656160448201526d191e481a5b9a5d1a585b1a5e995960921b6064820152608401610ba8565b6000805460ff1916600117905580156118ce576000805461ff0019166101001790555b6118d9848484613162565b801561191f576000805461ff0019169055604051600181527f7f26b83ff96e1f2b6a682f133852f6798a09c465da95921460cefb38474024989060200160405180910390a15b50505050565b60008061193061244f565b9050610a73818585612609565b600261025c5414156119915760405162461bcd60e51b815260206004820152601f60248201527f5265656e7472616e637947756172643a207265656e7472616e742063616c6c006044820152606401610ba8565b600261025c5561199f6127d0565b610297548111156119af57600080fd5b610297546119bd90826131f0565b610297556119cb82826131fc565b5050600161025c55565b60006109c382613265565b606060006119ed836119d5565b6000818152610298602052604081205491925060ff90911690816005811115611a1857611a18614d3e565b1415611a415750506040805180820190915260048152634e6f6e6560e01b602082015292915050565b6001816005811115611a5557611a55614d3e565b1415611a80575050604080518082019091526006815265125cdcdd595960d21b602082015292915050565b6002816005811115611a9457611a94614d3e565b1415611ac1575050604080518082019091526008815267111a5cdc1d5d195960c21b602082015292915050565b6003816005811115611ad557611ad5614d3e565b1415611b0157505060408051808201909152600781526614995d9bdad95960ca1b602082015292915050565b6004816005811115611b1557611b15614d3e565b1415611b4357505060408051808201909152600981526814dd5cdc195b99195960ba1b602082015292915050565b6005816005811115611b5757611b57614d3e565b1415611b83575050604080518082019091526007815266115e1c1a5c995960ca1b602082015292915050565b505060408051808201909152600581526422b93937b960d91b602082015292915050565b60008181526097602052604081206109c390613359565b6000611bc861244f565b6001600160a01b03168360600151602001516001600160a01b031614611c005760405162461bcd60e51b8152600401610ba89061548a565b6000611c0b846119d5565b905060016000828152610298602052604090205460ff166005811115611c3357611c33614d3e565b14611c505760405162461bcd60e51b8152600401610ba89061543a565b6000818152610298602052604090819020805460ff19166003179055517f09e41d39f5fbe80f71bc2f0a44e937a0ee3dff62dd07f191a8a461a339891a03906114149083908690615471565b6000611ca661244f565b6001600160a01b03168360600151602001516001600160a01b031614611cde5760405162461bcd60e51b8152600401610ba89061548a565b6000611ce9846119d5565b905060016000828152610298602052604090205460ff166005811115611d1157611d11614d3e565b14611d2e5760405162461bcd60e51b8152600401610ba89061543a565b6000818152610298602052604090819020805460ff19166004179055517f78a24d70a605e5984bdf7233d4f5e3f53c63bda44f9caa9803b2ccabae03364390611d7a9083908690615471565b60405180910390a16000611d906012600a615306565b856080015160e00151611da39190615315565b90506000611dbc82876080015160c0015160ff16612c24565b9050611dd086606001516020015183612b1c565b611de286606001516020015183612d7b565b6114a086608001516020015182612c33565b600082815260656020526040902060010154611e0f81612e54565b610f738383612f04565b6001600160a01b03918216600090815260ca6020908152604080832093909416825291909152205490565b6000611e4e61244f565b6001600160a01b03168360800151602001516001600160a01b031614611e865760405162461bcd60e51b8152600401610ba8906153e4565b61029254341015611efa5760405162461bcd60e51b815260206004820152603860248201527f4b5242546f6b656e3a206d73672e76616c7565206d7573742062652067726561604482015277746572207468616e206d696e5072696365546f497373756560401b6064820152608401610ba8565b61029354341115611f6b5760405162461bcd60e51b815260206004820152603560248201527f4b5242546f6b656e3a206d73672e76616c7565206d757374206265206c657373604482015274207468616e206d61785072696365546f497373756560581b6064820152608401610ba8565b348360800151610100015114611fe65760405162461bcd60e51b815260206004820152603a60248201527f4b5242546f6b656e3a206d73672e76616c756520646f6573206e6f74206d617460448201527963682063726564656e7469616c5375626a6563742e707269636560301b6064820152608401610ba8565b6000611ff1846119d5565b905061200e84606001516020015161200886613265565b85613363565b61201784612836565b6000818152610298602052604081205460ff16600581111561203b5761203b614d3e565b146120a95760405162461bcd60e51b815260206004820152603860248201527f4b5242546f6b656e3a2056657269666961626c652043726564656e7469616c206044820152771a185cda08185b1c9958591e481899595b881a5cdcdd595960421b6064820152608401610ba8565b610291546120be85606001516020015161131e565b10156121225760405162461bcd60e51b815260206004820152602d60248201527f4b5242546f6b656e3a2069737375657220646f6573206e6f742068617665206560448201526c6e6f7567682062616c616e636560981b6064820152608401610ba8565b60006121306012600a615306565b856080015160e001516121439190615315565b905061029454811015801561215b5750610295548111155b6121d95760405162461bcd60e51b815260206004820152604360248201527f4b5242546f6b656e3a207374616b65206d757374206265206265747765656e2060448201527f6d696e5374616b65546f497373756520616e64206d61785374616b65546f497360648201526273756560e81b608482015260a401610ba8565b6121eb85606001516020015182612c33565b60608501516020908101516001600160a01b0316600090815261029990915260409020546122199082613465565b6060860180516020908101516001600160a01b0390811660009081526102998352604080822095909555925182015193518581529316927f5dac0c1b1112564a045ba943c9d50270893e8e826c49be8e7073adc713ab7bd7910160405180910390a3604080518082019091528060018152600060209182018190528481526102989091526040902081518154829060ff191660018360058111156122bf576122bf614d3e565b0217905550602082015181600101559050507fb4323e298f3a82d5cf939b5e4ed408526ed5f8ebe42169c54ec2b667a85e1bc9828660405161230292919061510f565b60405180910390a1600061232182876080015160c0015160ff16612c24565b905061233586608001516020015182612d7b565b61234786606001516020015182612d7b565b60006123696123628860800151610100015161029654613471565b606461347d565b6060880151602001519091506123889061238334846131f0565b6131fc565b610297546123969082613465565b610297555060019695505050505050565b610229546040516371d4ed8d60e11b81526000916001600160a01b03169063e3a9db1a906123d9908590600401614eab565b602060405180830381865afa1580156123f6573d6000803e3d6000fd5b505050506040513d601f19601f820116820180604052508101906109c391906154d5565b60006001600160e01b03198216637965db0b60e01b14806109c357506301ffc9a760e01b6001600160e01b03198316146109c3565b600061245a33611309565b1561246c575060131936013560601c90565b503390565b6001600160a01b0383166124d35760405162461bcd60e51b8152602060048201526024808201527f45524332303a20617070726f76652066726f6d20746865207a65726f206164646044820152637265737360e01b6064820152608401610ba8565b6001600160a01b0382166125345760405162461bcd60e51b815260206004820152602260248201527f45524332303a20617070726f766520746f20746865207a65726f206164647265604482015261737360f01b6064820152608401610ba8565b6001600160a01b03838116600081815260ca602090815260408083209487168084529482529182902085905590518481527f8c5be1e5ebec7d5bd14f71427d1e84f3dd0314c0f7b2291e5b200ac8c7c3b925910160405180910390a3505050565b60006125a18484611e19565b9050600019811461191f57818110156125fc5760405162461bcd60e51b815260206004820152601d60248201527f45524332303a20696e73756666696369656e7420616c6c6f77616e63650000006044820152606401610ba8565b61191f8484848403612471565b6001600160a01b03831661266d5760405162461bcd60e51b815260206004820152602560248201527f45524332303a207472616e736665722066726f6d20746865207a65726f206164604482015264647265737360d81b6064820152608401610ba8565b6001600160a01b0382166126cf5760405162461bcd60e51b815260206004820152602360248201527f45524332303a207472616e7366657220746f20746865207a65726f206164647260448201526265737360e81b6064820152608401610ba8565b6126da838383613489565b6001600160a01b038316600090815260c96020526040902054818110156127525760405162461bcd60e51b815260206004820152602660248201527f45524332303a207472616e7366657220616d6f756e7420657863656564732062604482015265616c616e636560d01b6064820152608401610ba8565b6001600160a01b03808516600090815260c960205260408082208585039055918516815290812080548492906127899084906153cc565b92505081905550826001600160a01b0316846001600160a01b0316600080516020615d8b833981519152846040516127c391815260200190565b60405180910390a361191f565b6127ea600080516020615d2483398151915261071b61244f565b6111805760405162461bcd60e51b815260206004820152601f60248201527f4b5242546f6b656e3a206d757374206861766520676f7665726e20726f6c65006044820152606401610ba8565b6060810151602001516001600160a01b03166128945760405162461bcd60e51b815260206004820152601c60248201527f4b5242546f6b656e3a20626164206973737565722061646472657373000000006044820152606401610ba8565b6080810151602001516001600160a01b03166129025760405162461bcd60e51b815260206004820152602760248201527f4b5242546f6b656e3a206261642063726564656e7469616c5375626a656374206044820152666164647265737360c81b6064820152608401610ba8565b6080810151516040516129189190602001614faf565b60408051601f1981840301815290829052805160209182012060608401515190926129439201614faf565b6040516020818303038152906040528051906020012014156129c55760405162461bcd60e51b815260206004820152603560248201527f4b5242546f6b656e3a2069737375657220444944206973207468652073616d6560448201527408185cc818dc9959195b9d1a585b14dd589a9958dd605a1b6064820152608401610ba8565b8060800151602001516001600160a01b03168160600151602001516001600160a01b03161415612a595760405162461bcd60e51b815260206004820152603960248201527f4b5242546f6b656e3a20697373756572206164647265737320697320746865206044820152781cd85b5948185cc818dc9959195b9d1a585b14dd589a9958dd603a1b6064820152608401610ba8565b806080015161012001514211612ac45760405162461bcd60e51b815260206004820152602a60248201527f4b5242546f6b656e3a2056432069737375616e63654461746520697320696e206044820152697468652066757475726560b01b6064820152608401610ba8565b8060800151610140015142106111415760405162461bcd60e51b815260206004820181905260248201527f4b5242546f6b656e3a2056432068617320616c726561647920657870697265646044820152606401610ba8565b6001600160a01b038216612b855760405162461bcd60e51b815260206004820152602a60248201527f4b5242546f6b656e3a206275726e207374616b652066726f6d20746865207a65604482015269726f206164647265737360b01b6064820152608401610ba8565b6001600160a01b038216600090815261029960205260409020548111611077576001600160a01b03821660009081526102996020526040902054612bc990826131f0565b6001600160a01b038316600081815261029960205260408082209390935591517f5dac0c1b1112564a045ba943c9d50270893e8e826c49be8e7073adc713ab7bd790612c189085815260200190565b60405180910390a35050565b6000610aa66123628484613471565b6001600160a01b038216612c935760405162461bcd60e51b815260206004820152602160248201527f45524332303a206275726e2066726f6d20746865207a65726f206164647265736044820152607360f81b6064820152608401610ba8565b612c9f82600083613489565b6001600160a01b038216600090815260c9602052604090205481811015612d135760405162461bcd60e51b815260206004820152602260248201527f45524332303a206275726e20616d6f756e7420657863656564732062616c616e604482015261636560f01b6064820152608401610ba8565b6001600160a01b038316600090815260c960205260408120838303905560cb8054849290612d429084906154ee565b90915550506040518281526000906001600160a01b03851690600080516020615d8b8339815191529060200160405180910390a3505050565b6001600160a01b038216612dd15760405162461bcd60e51b815260206004820152601f60248201527f45524332303a206d696e7420746f20746865207a65726f2061646472657373006044820152606401610ba8565b612ddd60008383613489565b8060cb6000828254612def91906153cc565b90915550506001600160a01b038216600090815260c9602052604081208054839290612e1c9084906153cc565b90915550506040518181526001600160a01b03831690600090600080516020615d8b8339815191529060200160405180910390a35050565b61114181612e6061244f565b613603565b612e6f8282613667565b6000828152609760205260409020610f7390826136ee565b6000610fe87f8b73c3c69bb8fe3d512ecc4cf759cc79239f7b179b0ffacaa9a75d522b39400f612eb76101915490565b610192546040805160208101859052908101839052606081018290524660808201523060a082015260009060c0016040516020818303038152906040528051906020012090509392505050565b612f0e8282613703565b6000828152609760205260409020610f739082613788565b600080516020615d44833981519152546001600160a01b031690565b6111416127d0565b7f4910fdfa16fed3260ed0e7147f7cc6da11a60208b5b9406d12a635614ffd91435460ff1615612f7d57610f738361379d565b826001600160a01b03166352d1902d6040518163ffffffff1660e01b8152600401602060405180830381865afa925050508015612fd7575060408051601f3d908101601f19168201909252612fd4918101906154d5565b60015b61303a5760405162461bcd60e51b815260206004820152602e60248201527f45524331393637557067726164653a206e657720696d706c656d656e7461746960448201526d6f6e206973206e6f74205555505360901b6064820152608401610ba8565b600080516020615d4483398151915281146130a95760405162461bcd60e51b815260206004820152602960248201527f45524331393637557067726164653a20756e737570706f727465642070726f786044820152681a58589b195555525160ba1b6064820152608401610ba8565b50610f73838383613837565b6130bd61385c565b61012d805460ff191690557f5db9ee0a495bf2e6ff9c91a7834c1ba4fdd244a5e8aa4e537bd38aeae4b073aa6130f161244f565b6040516130fe9190614eab565b60405180910390a1565b6131106138a6565b61012d805460ff191660011790557f62e78cea01bee320cd4e420270b5ea74000d11b0c9f74754ebdbfc544b05a2586130f161244f565b6000610aa683836138ed565b6001600160a01b03163b151590565b600054610100900460ff166131895760405162461bcd60e51b8152600401610ba890615505565b613191613917565b613199613917565b6131a1613917565b6131a9613917565b6131b3838361393e565b6131bb613917565b6131c361398c565b6131cb613917565b6131d583826139c0565b6131dd613a03565b6131e5613abe565b610f73838383613aed565b6000610aa682846154ee565b6102295460405163f340fa0160e01b81526001600160a01b039091169063f340fa0190839061322f908690600401614eab565b6000604051808303818588803b15801561324857600080fd5b505af115801561325c573d6000803e3d6000fd5b50505050505050565b60007f63c4847aa3662952b34b8f76f3abc371c24535ee34fce5b3df34d029db924d4e60001b8260000151805190602001208360200151805190602001208460400151805190602001206132bc8660600151613bea565b6132c98760800151613c43565b6132d68860a00151613d3c565b60c0890151805160209182012060e08b015180519083012060405161333c9a9998979695949301988952602089019790975260408801959095526060870193909352608086019190915260a085015260c084015260e08301526101008201526101200190565b604051602081830303815290604052805190602001209050919050565b60006109c3825490565b600061336e83613d92565b9050600061337c8284613de0565b90506001600160a01b0381166133e35760405162461bcd60e51b815260206004820152602660248201527f4b5242546f6b656e3a20696e76616c6964207369676e6174757265206164647260448201526565737328302960d01b6064820152608401610ba8565b846001600160a01b0316816001600160a01b031614610fd75760405162461bcd60e51b815260206004820152603860248201527f4b5242546f6b656e3a207265636f76657265642061646472657373206469666660448201527732b93990333937b69032bc3832b1ba32b21039b4b3b732b960411b6064820152608401610ba8565b6000610aa682846153cc565b6000610aa68284615315565b6000610aa68284615550565b613494838383613e04565b6134ae600080516020615d2483398151915261071b61244f565b806134c057506001600160a01b038316155b806134d257506001600160a01b038216155b806134e8575061028f546134e58461131e565b10155b61354a5760405162461bcd60e51b815260206004820152602d60248201527f4b5242546f6b656e3a2073656e64657220646f6573206e6f742068617665206560448201526c6e6f7567682062616c616e636560981b6064820152608401610ba8565b613564600080516020615d2483398151915261071b61244f565b8061357657506001600160a01b038316155b8061358857506001600160a01b038216155b8061359e57506102905461359b8361131e565b10155b610f735760405162461bcd60e51b815260206004820152603060248201527f4b5242546f6b656e3a20726563697069656e7420646f6573206e6f742068617660448201526f6520656e6f7567682062616c616e636560801b6064820152608401610ba8565b61360d828261172a565b61107757613625816001600160a01b03166014613e6b565b613630836020613e6b565b604051602001613641929190615572565b60408051601f198184030181529082905262461bcd60e51b8252610ba891600401614727565b613671828261172a565b6110775760008281526065602090815260408083206001600160a01b03851684529091529020805460ff191660011790556136aa61244f565b6001600160a01b0316816001600160a01b0316837f2f8788117e7eff1d82e926ec794901d17c78024a50270940304540a733656f0d60405160405180910390a45050565b6000610aa6836001600160a01b038416614006565b61370d828261172a565b156110775760008281526065602090815260408083206001600160a01b03851684529091529020805460ff1916905561374461244f565b6001600160a01b0316816001600160a01b0316837ff6391f5c32d9c69d2a47ea670b442974b53935d1edc7fd64eb21e047a839171b60405160405180910390a45050565b6000610aa6836001600160a01b038416614055565b6137a681613153565b6138085760405162461bcd60e51b815260206004820152602d60248201527f455243313936373a206e657720696d706c656d656e746174696f6e206973206e60448201526c1bdd08184818dbdb9d1c9858dd609a1b6064820152608401610ba8565b600080516020615d4483398151915280546001600160a01b0319166001600160a01b0392909216919091179055565b61384083614148565b60008251118061384d5750805b15610f735761191f8383614188565b61012d5460ff166111805760405162461bcd60e51b815260206004820152601460248201527314185d5cd8589b194e881b9bdd081c185d5cd95960621b6044820152606401610ba8565b61012d5460ff16156111805760405162461bcd60e51b815260206004820152601060248201526f14185d5cd8589b194e881c185d5cd95960821b6044820152606401610ba8565b6000826000018281548110613904576139046155e1565b9060005260206000200154905092915050565b600054610100900460ff166111805760405162461bcd60e51b8152600401610ba890615505565b600054610100900460ff166139655760405162461bcd60e51b8152600401610ba890615505565b81516139789060cc9060208501906145ff565b508051610f739060cd9060208401906145ff565b600054610100900460ff166139b35760405162461bcd60e51b8152600401610ba890615505565b61012d805460ff19169055565b600054610100900460ff166139e75760405162461bcd60e51b8152600401610ba890615505565b8151602092830120815191909201206101919190915561019255565b600054610100900460ff16613a2a5760405162461bcd60e51b8152600401610ba890615505565b604051613a3690614683565b604051809103906000f080158015613a52573d6000803e3d6000fd5b5061022980546001600160a01b0319166001600160a01b039290921691821790556040805163204a7f0760e21b81529051638129fc1c9160048082019260009290919082900301818387803b158015613aaa57600080fd5b505af115801561191f573d6000803e3d6000fd5b600054610100900460ff16613ae55760405162461bcd60e51b8152600401610ba890615505565b600161025c55565b600054610100900460ff16613b145760405162461bcd60e51b8152600401610ba890615505565b613b266000613b2161244f565b61427a565b613b40600080516020615d24833981519152613b2161244f565b613b4c6012600a615306565b613b57906064615315565b61028f55613b676012600a615306565b613b72906064615315565b61029055600a610296556012613b8990600a615306565b613b94906064615315565b61029155655af3107a400061029255660110d9316ec00061029355613bbb6012600a615306565b613bc6906001615315565b61029455613bd66012600a615306565b613be190600a615315565b61029555505050565b8051805160209182012081830151604080517fabb691e6e52ceb1ff8b3df91dc14323057e88efa3252486ed994fd62706cdfaa948101949094528301919091526001600160a01b0316606082015260009060800161333c565b60007f4b87db6c5998f503ac6519b5a7d74efcf2a230368deeaf54dd8bf078da459ff760001b82600001518051906020012083602001518460400151805190602001208560600151805190602001208660800151805190602001208760a00151805190602001208860c001518960e001518a61010001518b61012001518c610140015160405160200161333c9c9b9a999897969594939291909b8c5260208c019a909a526001600160a01b039890981660408b015260608a0196909652608089019490945260a088019290925260c087015260ff1660e08601526101008501526101208401526101408301526101608201526101800190565b8051805160209182012081830151805190830120604080517f1a58b7c56676b62343f37f4f3603a07ae6dd78bea300689bcefef0f9498c6cc994810194909452830191909152606082015260009060800161333c565b60006109c3613d9f612e87565b8360405161190160f01b6020820152602281018390526042810182905260009060620160405160208183030381529060405280519060200120905092915050565b6000806000613def8585614284565b91509150613dfc816142f4565b509392505050565b61012d5460ff1615610f735760405162461bcd60e51b815260206004820152602a60248201527f45524332305061757361626c653a20746f6b656e207472616e736665722077686044820152691a5b19481c185d5cd95960b21b6064820152608401610ba8565b60606000613e7a836002615315565b613e859060026153cc565b6001600160401b03811115613e9c57613e9c6147e5565b6040519080825280601f01601f191660200182016040528015613ec6576020820181803683370190505b509050600360fc1b81600081518110613ee157613ee16155e1565b60200101906001600160f81b031916908160001a905350600f60fb1b81600181518110613f1057613f106155e1565b60200101906001600160f81b031916908160001a9053506000613f34846002615315565b613f3f9060016153cc565b90505b6001811115613fb7576f181899199a1a9b1b9c1cb0b131b232b360811b85600f1660108110613f7357613f736155e1565b1a60f81b828281518110613f8957613f896155e1565b60200101906001600160f81b031916908160001a90535060049490941c93613fb0816155f7565b9050613f42565b508315610aa65760405162461bcd60e51b815260206004820181905260248201527f537472696e67733a20686578206c656e67746820696e73756666696369656e746044820152606401610ba8565b600081815260018301602052604081205461404d575081546001818101845560008481526020808220909301849055845484825282860190935260409020919091556109c3565b5060006109c3565b6000818152600183016020526040812054801561413e5760006140796001836154ee565b855490915060009061408d906001906154ee565b90508181146140f25760008660000182815481106140ad576140ad6155e1565b90600052602060002001549050808760000184815481106140d0576140d06155e1565b6000918252602080832090910192909255918252600188019052604090208390555b85548690806141035761410361560e565b6001900381819060005260206000200160009055905585600101600086815260200190815260200160002060009055600193505050506109c3565b60009150506109c3565b6141518161379d565b6040516001600160a01b038216907fbc7cd75a20ee27fd9adebab32041f755214dbc6bffa90cc0225b39da2e5c2d3b90600090a250565b606061419383613153565b6141ee5760405162461bcd60e51b815260206004820152602660248201527f416464726573733a2064656c65676174652063616c6c20746f206e6f6e2d636f6044820152651b9d1c9858dd60d21b6064820152608401610ba8565b600080846001600160a01b0316846040516142099190614faf565b600060405180830381855af49150503d8060008114614244576040519150601f19603f3d011682016040523d82523d6000602084013e614249565b606091505b50915091506142718282604051806060016040528060278152602001615d64602791396144aa565b95945050505050565b6110778282612e65565b6000808251604114156142bb5760208301516040840151606085015160001a6142af878285856144e3565b945094505050506142ed565b8251604014156142e557602083015160408401516142da8683836145c6565b9350935050506142ed565b506000905060025b9250929050565b600081600481111561430857614308614d3e565b14156143115750565b600181600481111561432557614325614d3e565b141561436e5760405162461bcd60e51b815260206004820152601860248201527745434453413a20696e76616c6964207369676e617475726560401b6044820152606401610ba8565b600281600481111561438257614382614d3e565b14156143d05760405162461bcd60e51b815260206004820152601f60248201527f45434453413a20696e76616c6964207369676e6174757265206c656e677468006044820152606401610ba8565b60038160048111156143e4576143e4614d3e565b141561443d5760405162461bcd60e51b815260206004820152602260248201527f45434453413a20696e76616c6964207369676e6174757265202773272076616c604482015261756560f01b6064820152608401610ba8565b600481600481111561445157614451614d3e565b14156111415760405162461bcd60e51b815260206004820152602260248201527f45434453413a20696e76616c6964207369676e6174757265202776272076616c604482015261756560f01b6064820152608401610ba8565b606083156144b9575081610aa6565b8251156144c95782518084602001fd5b8160405162461bcd60e51b8152600401610ba89190614727565b6000806fa2a8918ca85bafe22016d0b997e4df60600160ff1b0383111561451057506000905060036145bd565b8460ff16601b1415801561452857508460ff16601c14155b1561453957506000905060046145bd565b6040805160008082526020820180845289905260ff881692820192909252606081018690526080810185905260019060a0016020604051602081039080840390855afa15801561458d573d6000803e3d6000fd5b5050604051601f1901519150506001600160a01b0381166145b6576000600192509250506145bd565b9150600090505b94509492505050565b6000806001600160ff1b038316816145e360ff86901c601b6153cc565b90506145f1878288856144e3565b935093505050935093915050565b82805461460b90614f74565b90600052602060002090601f01602090048101928261462d5760008555614673565b82601f1061464657805160ff1916838001178555614673565b82800160010185558215614673579182015b82811115614673578251825591602001919060010190614658565b5061467f929150614690565b5090565b6106ff8061562583390190565b5b8082111561467f5760008155600101614691565b6000602082840312156146b757600080fd5b81356001600160e01b031981168114610aa657600080fd5b60005b838110156146ea5781810151838201526020016146d2565b8381111561191f5750506000910152565b600081518084526147138160208601602086016146cf565b601f01601f19169290920160200192915050565b602081526000610aa660208301846146fb565b6001600160a01b038116811461114157600080fd5b803561475a8161473a565b919050565b6000806040838503121561477257600080fd5b823561477d8161473a565b946020939093013593505050565b6000806000606084860312156147a057600080fd5b83356147ab8161473a565b925060208401356147bb8161473a565b929592945050506040919091013590565b6000602082840312156147de57600080fd5b5035919050565b634e487b7160e01b600052604160045260246000fd5b604080519081016001600160401b038111828210171561481d5761481d6147e5565b60405290565b60405161016081016001600160401b038111828210171561481d5761481d6147e5565b60405161010081016001600160401b038111828210171561481d5761481d6147e5565b600082601f83011261487a57600080fd5b81356001600160401b0380821115614894576148946147e5565b604051601f8301601f19908116603f011681019082821181831017156148bc576148bc6147e5565b816040528381528660208588010111156148d557600080fd5b836020870160208301376000602085830101528094505050505092915050565b60006040828403121561490757600080fd5b61490f6147fb565b905081356001600160401b0381111561492757600080fd5b61493384828501614869565b82525060208201356149448161473a565b602082015292915050565b803560ff8116811461475a57600080fd5b6000610160828403121561497357600080fd5b61497b614823565b905081356001600160401b038082111561499457600080fd5b6149a085838601614869565b83526149ae6020850161474f565b602084015260408401359150808211156149c757600080fd5b6149d385838601614869565b604084015260608401359150808211156149ec57600080fd5b6149f885838601614869565b60608401526080840135915080821115614a1157600080fd5b614a1d85838601614869565b608084015260a0840135915080821115614a3657600080fd5b50614a4384828501614869565b60a083015250614a5560c0830161494f565b60c082015260e082013560e082015261010080830135818301525061012080830135818301525061014080830135818301525092915050565b600060408284031215614aa057600080fd5b614aa86147fb565b905081356001600160401b0380821115614ac157600080fd5b614acd85838601614869565b83526020840135915080821115614ae357600080fd5b50614af084828501614869565b60208301525092915050565b60006101008284031215614b0f57600080fd5b614b17614846565b905081356001600160401b0380821115614b3057600080fd5b614b3c85838601614869565b83526020840135915080821115614b5257600080fd5b614b5e85838601614869565b60208401526040840135915080821115614b7757600080fd5b614b8385838601614869565b60408401526060840135915080821115614b9c57600080fd5b614ba8858386016148f5565b60608401526080840135915080821115614bc157600080fd5b614bcd85838601614960565b608084015260a0840135915080821115614be657600080fd5b614bf285838601614a8e565b60a084015260c0840135915080821115614c0b57600080fd5b614c1785838601614869565b60c084015260e0840135915080821115614c3057600080fd5b50614c3d84828501614869565b60e08301525092915050565b60008060408385031215614c5c57600080fd5b82356001600160401b0380821115614c7357600080fd5b614c7f86838701614afc565b93506020850135915080821115614c9557600080fd5b50614ca285828601614afc565b9150509250929050565b60008060408385031215614cbf57600080fd5b823591506020830135614cd18161473a565b809150509250929050565b600060208284031215614cee57600080fd5b8135610aa68161473a565b60008060408385031215614d0c57600080fd5b8235614d178161473a565b915060208301356001600160401b03811115614d3257600080fd5b614ca285828601614869565b634e487b7160e01b600052602160045260246000fd5b6040810160068410614d7657634e487b7160e01b600052602160045260246000fd5b9281526020015290565b60008060408385031215614d9357600080fd5b82356001600160401b0380821115614daa57600080fd5b614db686838701614afc565b93506020850135915080821115614dcc57600080fd5b50614ca285828601614869565b600060208284031215614deb57600080fd5b81356001600160401b03811115614e0157600080fd5b614e0d84828501614afc565b949350505050565b60008060008060008060008060006101208a8c031215614e3457600080fd5b8935985060208a0135975060408a0135965060608a0135955060808a0135945060a08a0135935060c08a0135925060e08a013591506101008a0135614e788161473a565b809150509295985092959850929598565b60008060408385031215614e9c57600080fd5b50508035926020909101359150565b6001600160a01b0391909116815260200190565b600080600060608486031215614ed457600080fd5b83356001600160401b0380821115614eeb57600080fd5b614ef787838801614869565b94506020860135915080821115614f0d57600080fd5b614f1987838801614869565b93506040860135915080821115614f2f57600080fd5b50614f3c86828701614869565b9150509250925092565b60008060408385031215614f5957600080fd5b8235614f648161473a565b91506020830135614cd18161473a565b600181811c90821680614f8857607f821691505b60208210811415614fa957634e487b7160e01b600052602260045260246000fd5b50919050565b60008251614fc18184602087016146cf565b9190910192915050565b6000815160408452614fe060408501826146fb565b6020938401516001600160a01b0316949093019390935250919050565b60006101608251818552615013828601826146fb565b915050602083015161503060208601826001600160a01b03169052565b506040830151848203604086015261504882826146fb565b9150506060830151848203606086015261506282826146fb565b9150506080830151848203608086015261507c82826146fb565b91505060a083015184820360a086015261509682826146fb565b91505060c08301516150ad60c086018260ff169052565b5060e08381015190850152610100808401519085015261012080840151908501526101409283015192909301919091525090565b60008151604084526150f660408501826146fb565b90506020830151848203602086015261427182826146fb565b82815260406020820152600082516101008060408501526151346101408501836146fb565b91506020850151603f198086850301606087015261515284836146fb565b9350604087015191508086850301608087015261516f84836146fb565b935060608701519150808685030160a087015261518c8483614fcb565b935060808701519150808685030160c08701526151a98483614ffd565b935060a08701519150808685030160e08701526151c684836150e1565b935060c087015191508086850301838701526151e284836146fb565b935060e087015192508086850301610120870152505061520282826146fb565b9695505050505050565b634e487b7160e01b600052601160045260246000fd5b600181815b8085111561525d5781600019048211156152435761524361520c565b8085161561525057918102915b93841c9390800290615227565b509250929050565b600082615274575060016109c3565b81615281575060006109c3565b816001811461529757600281146152a1576152bd565b60019150506109c3565b60ff8411156152b2576152b261520c565b50506001821b6109c3565b5060208310610133831016604e8410600b84101617156152e0575081810a6109c3565b6152ea8383615222565b80600019048211156152fe576152fe61520c565b029392505050565b6000610aa660ff841683615265565b600081600019048311821515161561532f5761532f61520c565b500290565b6020808252602c908201527f46756e6374696f6e206d7573742062652063616c6c6564207468726f7567682060408201526b19195b1959d85d1958d85b1b60a21b606082015260800190565b6020808252602c908201527f46756e6374696f6e206d7573742062652063616c6c6564207468726f7567682060408201526b6163746976652070726f787960a01b606082015260800190565b600082198211156153df576153df61520c565b500190565b60208082526036908201527f4b5242546f6b656e3a2073656e646572206d757374206265207468652063726560408201527564656e7469616c5375626a656374206164647265737360501b606082015260800190565b6020808252601d908201527f4b5242546f6b656e3a207374617465206973206e6f7420497373756564000000604082015260600190565b828152604060208201526000614e0d60408301846146fb565b6020808252602b908201527f4b5242546f6b656e3a2073656e646572206d757374206265207468652069737360408201526a756572206164647265737360a81b606082015260800190565b6000602082840312156154e757600080fd5b5051919050565b6000828210156155005761550061520c565b500390565b6020808252602b908201527f496e697469616c697a61626c653a20636f6e7472616374206973206e6f74206960408201526a6e697469616c697a696e6760a81b606082015260800190565b60008261556d57634e487b7160e01b600052601260045260246000fd5b500490565b76020b1b1b2b9b9a1b7b73a3937b61d1030b1b1b7bab73a1604d1b8152600083516155a48160178501602088016146cf565b7001034b99036b4b9b9b4b733903937b6329607d1b60179184019182015283516155d58160288401602088016146cf565b01602801949350505050565b634e487b7160e01b600052603260045260246000fd5b6000816156065761560661520c565b506000190190565b634e487b7160e01b600052603160045260246000fdfe608060405234801561001057600080fd5b506106df806100206000396000f3fe6080604052600436106100605760003560e01c806351cff8d914610065578063715018a6146100875780638129fc1c1461009c5780638da5cb5b146100b1578063e3a9db1a146100de578063f2fde38b14610122578063f340fa0114610142575b600080fd5b34801561007157600080fd5b50610085610080366004610614565b610155565b005b34801561009357600080fd5b506100856101cc565b3480156100a857600080fd5b506100856101e0565b3480156100bd57600080fd5b506033546040516001600160a01b0390911681526020015b60405180910390f35b3480156100ea57600080fd5b506101146100f9366004610614565b6001600160a01b031660009081526065602052604090205490565b6040519081526020016100d5565b34801561012e57600080fd5b5061008561013d366004610614565b6102f6565b610085610150366004610614565b61036c565b61015d6103de565b6001600160a01b03811660008181526065602052604081208054919055906101859082610438565b816001600160a01b03167f7084f5476618d8e60b11ef0d7d3f06914655adb8793e28ff7f018d4c76d505d5826040516101c091815260200190565b60405180910390a25050565b6101d46103de565b6101de6000610553565b565b600054610100900460ff16158080156102005750600054600160ff909116105b8061021a5750303b15801561021a575060005460ff166001145b6102825760405162461bcd60e51b815260206004820152602e60248201527f496e697469616c697a61626c653a20636f6e747261637420697320616c72656160448201526d191e481a5b9a5d1a585b1a5e995960921b60648201526084015b60405180910390fd5b6000805460ff1916600117905580156102a5576000805461ff0019166101001790555b6102ad6105a5565b80156102f3576000805461ff0019169055604051600181527f7f26b83ff96e1f2b6a682f133852f6798a09c465da95921460cefb38474024989060200160405180910390a15b50565b6102fe6103de565b6001600160a01b0381166103635760405162461bcd60e51b815260206004820152602660248201527f4f776e61626c653a206e6577206f776e657220697320746865207a65726f206160448201526564647265737360d01b6064820152608401610279565b6102f381610553565b6103746103de565b6001600160a01b03811660009081526065602052604081208054349283929161039e908490610638565b90915550506040518181526001600160a01b038316907f2da466a7b24304f47e87fa2e1e5a81b9831ce54fec19055ce277ca2f39ba42c4906020016101c0565b6033546001600160a01b031633146101de5760405162461bcd60e51b815260206004820181905260248201527f4f776e61626c653a2063616c6c6572206973206e6f7420746865206f776e65726044820152606401610279565b804710156104885760405162461bcd60e51b815260206004820152601d60248201527f416464726573733a20696e73756666696369656e742062616c616e63650000006044820152606401610279565b6000826001600160a01b03168260405160006040518083038185875af1925050503d80600081146104d5576040519150601f19603f3d011682016040523d82523d6000602084013e6104da565b606091505b505090508061054e5760405162461bcd60e51b815260206004820152603a60248201527f416464726573733a20756e61626c6520746f2073656e642076616c75652c20726044820152791958da5c1a595b9d081b585e481a185d99481c995d995c9d195960321b6064820152608401610279565b505050565b603380546001600160a01b038381166001600160a01b0319831681179093556040519116919082907f8be0079c531659141344cd1fd0a4f28419497f9722a3daafe3b4186f6b6457e090600090a35050565b600054610100900460ff166105cc5760405162461bcd60e51b81526004016102799061065e565b6101de600054610100900460ff166105f65760405162461bcd60e51b81526004016102799061065e565b6101de33610553565b6001600160a01b03811681146102f357600080fd5b60006020828403121561062657600080fd5b8135610631816105ff565b9392505050565b6000821982111561065957634e487b7160e01b600052601160045260246000fd5b500190565b6020808252602b908201527f496e697469616c697a61626c653a20636f6e7472616374206973206e6f74206960408201526a6e697469616c697a696e6760a81b60608201526080019056fea2646970667358221220968206594e0ae3e63b632cc6061d3316c6ed222544711c1bc5b272103263326164736f6c634300080c0033899bd46557473cb80307a9dabc297131ced39608330a2d29b2d52b660c03923e360894a13ba1a3210667c828492db98dca3e2076cc3735a920a3ca505d382bbc416464726573733a206c6f772d6c6576656c2064656c65676174652063616c6c206661696c6564ddf252ad1be2c89b69c2b068fc378daa952ba7f163c4a11628f55a4df523b3efa26469706673582212204637854b9068c4d6f416a0fe51dd2b0a7255527e00d11e0a15a7361b3721e8cc64736f6c634300080c0033",
  "linkReferences": {},
  "deployedLinkReferences": {}
}